:020000040000FA
:10000000103D0010BD020000C5020000C702000044
:10001000C9020000CB020000CD0200000000000079
:10002000000000000000000000000000F5010000DA
:10003000D1020000000000006D020000A9020000D3
:10004000D7020000D7020000D7020000D70200004C
:10005000D7020000D7020000D7020000D70200003C
:10006000D7020000D7020000D7020000D70200002C
:10007000D702000031180000D70200004D1900001F
:10008000D7020000D7020000D7020000D70200000C
:10009000D7020000D7020000D7020000D7020000FC
:1000A000D7020000D7020000690A0000D702000052
:1000B000D7020000D7020000D7020000D7020000DC
:1000C000D7020000D7020000D702000000F002F8BB
:1000D00000F048F80AA090E8000C82448344AAF19A
:1000E0000107DA4501D100F03DF8AFF2090EBAE898
:1000F0000F0013F0010F18BFFB1A43F0010318475C
:100100002C6300004C630000103A24BF78C878C10B
:10011000FAD8520724BF30C830C144BF04680C600D
:10012000704700000023002400250026103A28BF55
:1001300078C1FBD8520728BF30C148BF0B60704759
:100140006E2900F0F981702900F00A82642900F01C
:10015000B781732900F0F383002070471FB51FBDDE
:1001600010B510BD00F021FC1146FFF7F7FF0FB4EA
:1001700002F05AFA0FBC02F051FF00F03BFC03B44E
:10018000FFF7EEFF03BC00F03FFC000080F309889E
:100190007047EFF309807047684680F30988044888
:1001A0000078C00714BF0220032080F31488704732
:1001B00019620000DFF818C0EFF305831B0618BFB3
:1001C0006047EFF31483DB0708BF604700DF704729
:1001D000913A0000DFF818C0EFF305831B0618BF43
:1001E0006047EFF31483DB0708BF604700DF704709
:1001F000753C0000EFF30980816911F8021CF1B928
:1002000090E80F10E047EFF3098C8CE80700144BDF
:1002100093E8060091420FD039B12CE9F00FC1F8F4
:1002200028C00CB404F006F90CBC1A60D2F828C03F
:10023000BCE8F00F8CF309886FF0020E704710B520
:10024000084A1268914209D8074C54F8214090E8B6
:100250000F10A047EFF3098C8CE80F0010BD0000D1
:100260000C0000108C3600008C36000003F078FF84
:100270000C4B93E80600914210D0EFF3098C2CE967
:10028000F00FC1F828C00CB404F0D4F80CBC1A600C
:10029000D2F828C0BCE8F00F8CF309886FF0020E8A
:1002A000704700000C00001004F08CF9E0E700003B
:1002B00000F023F804F086F9DAE7000009488047E7
:1002C00009480047FEE7FEE7FEE7FEE7FEE7FEE738
:1002D000FEE7FEE7FEE7FEE704480549034A054B53
:1002E00070470000F9220000CD000000103B001014
:1002F000103D0010103B001070477047FFFFFFFFDC
:1003000000487047B400001053EA020C00F0698006
:100310002DE9F04B4FF00006002B1FBFB3FA83F519
:1003200003FA05F424FA05F65E4012BF1643B2FA4A
:1003300082F502FA05F4C5F120051EBF22FA05FC7C
:1003400044EA0C04203556EA044C4FEA144418BF22
:10035000641C4FF000084FF00009904271EB030C51
:1003600039D3002919BFB1FA81F701FA07F6B0FABB
:1003700080F700FA07F6C7F120071EBF20FA07FC36
:1003800046EA0C062037B6FBF4FCA7EB0507103F46
:1003900007F01F0BCBF120062CFA06F60CFA0BFB2C
:1003A00044BFB3460026202FA4BF5E464FF0000B8B
:1003B0005BEA060C08BF4FF0010B19EB0B0948EB89
:1003C0000608ABFB027C06FB02CC0BFB03CCC01B7C
:1003D00071EB0C01C1E70B46024641464846BDE8B9
:1003E000F08B13B5084318BF4FF0FF300146AFF351
:1003F0000080BDE81C4070470FB41CB5074B06AA2F
:100400007B4469460090059800F06FFA0020694629
:1004100000F07EFA1CBC5DF814FB00000D05000026
:1004200070B5044685690068C10601D5302600E034
:100430002026C00707D070BDD4E90121304690477F
:10044000206A401C20626D1EF6D570BD70B5044652
:1004500085690078C00707D170BDD4E9012120204B
:100460009047206A401C20626D1EF6D570BD70B5A5
:100470000C460546012A05D02878800600D5EA6991
:10048000002302E0012305E05B1C934202D2E05C02
:100490000028F9D1A869E618C01AA861286A18448A
:1004A00028622846FFF7BCFF04E0D5E9012114F8D3
:1004B000010B9047B442F8D32846FFF7C7FF70BD41
:1004C0002DE9F0410646002410687529314616A52D
:1004D00010D0AFF30080002802DA404213A507E0F5
:1004E00031688A0701D512A502E0490704D511A594
:1004F000012401E0AFF3008000210A2206F1240765
:1005000009E0B0FBF2FCB0FBF2F302FB1C00303060
:1005100078541846491C0028F3D123462A46304611
:10052000BDE8F04100F083B9000000002D0000009C
:100530002B0000002000000011680268006A5305CB
:1005400001D508700AE0D30501D5088006E013063E
:1005500003D5C217C1E9000200E00860012070471E
:10056000F0B4136802680824C4610C4642F020020B
:100570000260110502D50E4A7A4402E00C4A7A4420
:100580000E32002100F1240505E003F00F061B09DF
:10059000965D6E54491C002BF7D105782D0703D5C5
:1005A000702C01D101231032F0BC00F040B90000E2
:1005B000EC4600002DE9F05F894604464FF0000A42
:1005C000DFF874B1FB44C0F820A02046E1688847FA
:1005D000002874D0252806D0D4E901219047206A4C
:1005E000401C2062F1E700265F462046E16888470C
:1005F0002028054607DB312D05D2781910F8200C8C
:1006000008B10643F1E7B00701D526F00406C4F8A7
:100610001CA00027C4F818A02A2D09D0284603F0F2
:100620005AF838B304EB8708303DC8F8185019E081
:1006300059F8041B204604EB87029161E168884762
:10064000012F054618D1E069002820DA26F020069F
:100650001DE0D8F8180000EB800005EB40003038B2
:10066000C8F818002046E1688847054603F033F8CB
:100670000028EED1012F0AD02E2D08D12046E168A6
:1006800088477F1C0546022F46F02006C4DBA06980
:10069000002803DA404246F00106A061F00701D0CD
:1006A00026F010066C2D0BD0682D09D04C2D39D0BA
:1006B0006A2D35D0742D35D07A2D33D016E038E040
:1006C000E1682F4620468847B842054609D16C2F7D
:1006D00026D04FF48060E1680643204688470546EF
:1006E00004E06C2F1AD04FF4807006430DB3A5F1CF
:1006F0004100192802D8203546F400664A462946AA
:10070000204626604E46FFF71BFD80B101280BD026
:10071000F61D26F0070000F1080956E74020E4E73F
:100720008020D8E70020D6E706F104094DE72846E7
:1007300052E7206ABDE8F09FC846000030B5054684
:100740000B462A4613F8014B12F8010B08B1A042E0
:10075000F8D01CB1002802D06D1CF1E7284630BD4E
:1007600010B5431C02E010F8011B71B18107FAD1EA
:100770004FF0013202C88C1A8C4314EAC211F9D02E
:10078000C01A0A0603D0C01E10BDC01A10BD0A044C
:1007900001D0801E10BD0902FCD0401E10BD032AEE
:1007A00040F2308010F0030C00F0158011F8013B8E
:1007B000BCF1020F624498BF11F801CB00F8013B75
:1007C00038BF11F8013BA2F1040298BF00F801CB39
:1007D00038BF00F8013B11F0030300F0B480083A81
:1007E000C0F0088051F8043B083A51F804CBA0E867
:1007F0000810F5E7121D5CBF51F8043B40F8043BBC
:10080000AFF30080D20724BF11F8013B11F801CBF0
:1008100048BF11F8012B24BF00F8013B00F801CBC1
:1008200048BF00F8012B70477047704770472DE9AB
:10083000F0470D4699469246044600F124080168A7
:10084000880604D5E06921F01001216000E0012054
:10085000A84201DD471B00E00027A1697A1902EBDD
:100860000900081AA0612078C00602D42046FFF7CC
:10087000D7FD002608E0D4E901211AF806009047C8
:10088000206A401C761C20624E45F4DB2078C006AE
:100890000AD52046FFF7C4FD06E0D4E90121302047
:1008A0009047206A401C2062381EA7F10107F4DC43
:1008B00007E0D4E9012118F805009047206A401CA0
:1008C0002062281EA5F10105F3DC2046FFF7BEFDDE
:1008D0002078000602D50220BDE8F0870120FBE762
:1008E00001694A1C02610878704700B58FB0CDE9F4
:1008F00001310021059105497944CDE903101146E4
:100900006846FFF757FE0FB000BD0000E5FFFFFF90
:100910000A6802F8010B0A60704710B5436913B109
:10092000AFF3008001E0FFF7A2FD012010BD1278B7
:1009300000F124010A7000224A700122EDE71168DB
:100940004FF0FF32E9E710B5203AC0F00B80B1E874
:100950001850A0E81850B1E81850A0E81850203AF4
:10096000BFF4F5AF5FEA027C24BFB1E81850A0E8FD
:10097000185044BF18C918C0BDE810405FEA827C17
:1009800024BF51F8043B40F8043B08BF7047D2072E
:1009900028BF31F8023B48BF11F8012B28BF20F8CF
:1009A000023B48BF00F8012B70477546FFF7A8FCD3
:1009B000AE4605006946534620F00700854618B04C
:1009C00020B5FFF789FCBDE820404FF000064FF04E
:1009D00000074FF000084FF0000BAC46ACE8C00930
:1009E000ACE8C009ACE8C009ACE8C00921F00701D7
:1009F0008D46704710B50446AFF300802046BDE831
:100A00001040FFF7BCBB000001491820ABBEFEE759
:100A1000260002004CF20400C4F20200016841F416
:100A2000A82101604CF2C400C4F20F00016841F437
:100A30008051016044F2000040F20741C4F203001B
:100A4000C0F2200101607047012101FA00F040F27C
:100A50001411C043C1F2000151E8002F024041E8E7
:100A60000023002BF8D170472DE9F04F81B044F2FC
:100A70000009C5F2000940F2181A09F586754FF011
:100A8000010BC1F2000A002600270DE029689943F6
:100A900008432860686840F0010068601436013738
:100AA000A02E05F1200559D0D9F800000BFA07F463
:100AB0002042F3D0D9F80400204211D0C9F80840F0
:100AC0000AEB0608D8E9020188421DD1F8B2FFF707
:100AD000BBFFD8F810100029E0D0012012E000BFC1
:100AE000D9F80C002042D9D0002068602860F8B204
:100AF000FFF7AAFFC9F810400AEB060001690029B8
:100B0000CCD002208847C9E7401A40F6FF729042D5
:100B100028BF10460144C8F80C10296840F6FF733E
:100B200049010BD55AF8061045F80C1C2A68C2F387
:100B3000814200FA02F211444AF8061029680901BC
:100B4000A4D5D8F8041045F8081C2A68C2F341520D
:100B500000FA02F21144C8F8041097E701B0BDE8AA
:100B6000F08F0000B0B5002000214FF4A072F023F8
:100B700000F068FB222002F005FD02F037FD40F294
:100B800034054FF49634C1F2000500BF288802F006
:100B900017FD013CFAD102F037FD0020B0BD000086
:100BA0002DE9F04740F21427C1F2000714463A68D5
:100BB000002A4FD016885588D2F80490D2F80C80BD
:100BC00032462B4600F03EFB222002F0DBFC02F016
:100BD0000DFD38684088C0B3F01DC008A4EB0901C2
:100BE000484300FB058440F2202940F2340A4FF0CC
:100BF0000008C1F20009C1F2000A06E0386808F1F5
:100C000001084088013480451FD2386800880028D8
:100C1000F4D0002605E000BF38680136008886421F
:100C2000ECD2207806F00705E840C007484608BF28
:100C30005046008802F0C4FC072DEDD138680088CA
:100C40000138864218BF0134E6E702F0DDFC0020DF
:100C5000BDE8F0874FF0FF30BDE8F087F0B581B018
:100C60001346127892B140F214270C4605465E1ED8
:100C7000C1F2000728462146FFF792FF3868B27894
:100C80000088002A054406F10106F3D1002001B0D6
:100C9000F0BD000070B582B0012000F061FB0024BF
:100CA0000020062100220023009400F06DFD0020AA
:100CB0000621012200F062FB00200621012200F043
:100CC00041FB02F05BFA044644F6D040C0F200005B
:100CD00081680569466A002088470220A84748F2D3
:100CE00001304BF62041C0F20800C0F2BE01B0470F
:100CF00014B902F099FA044640F2B810C1F20000AB
:100D0000472C40F0068101210170EA20002102F009
:100D100085FCEB20202102F081FCEC200C2102F06C
:100D20007DFCED20C72102F079FCE820382102F09B
:100D300075FCE920102102F071FCF120012102F084
:100D40006DFCF220102102F069FC4020012102F02C
:100D500065FC4120002102F061FC4220002102F0EC
:100D60005DFC4320102102F059FC44200E2102F0CA
:100D700055FC4520242102F051FC4620042102F0BC
:100D80004DFC4720502102F049FC4820022102F08E
:100D900045FC4920132102F041FC4A20192102F0B0
:100DA0003DFC4B20192102F039FC4C20162102F0A9
:100DB00035FC50201B2102F031FC5120312102F082
:100DC0002DFC52202F2102F029FC53203F2102F05C
:100DD00025FC54203F2102F021FC55203E2102F049
:100DE0001DFC56202F2102F019FC57207B2102F018
:100DF00015FC5820092102F011FC5920062102F0AF
:100E00000DFC5A20062102F009FC5B200C2102F0A7
:100E100005FC5C201D2102F001FC5D20CC2102F0CC
:100E2000FDFB1B201B2102F0F9FB1A20012102F01F
:100E3000F5FB24202F2102F0F1FB2520572102F0A1
:100E4000EDFB2320882102F0E9FB1820362102F077
:100E5000E5FB1920012102F0E1FB0120002102F055
:100E6000DDFB1F20882102F0D9FBC82002F0BCF86E
:100E70001F20822102F0D2FB322002F0B5F81F20A1
:100E8000922102F0CBFB322002F0AEF81F20D221DB
:100E900002F0C4FB322002F0A7F81720552102F01F
:100EA000BDFB0020002102F0B9FB2F20112102F030
:100EB000B5FB3120002102F0B1FB3220002102F00D
:100EC000ADFB2820382102F0A9FBC82002F08CF8E5
:100ED00028203C2102F0A2FB1620A82102F09EFB54
:100EE0000E20002102F09AFB0F20002102F096FB59
:100EF0001020012102F092FB1120402102F08EFB14
:100F00001220002102F08AFB1320002102F086FB50
:100F100078E10021017001204FF4807102F07EFB26
:100F200002204FF4E06102F079FB0420002102F07E
:100F300075FB082040F2072102F070FB0920002118
:100F400002F06CFB0A20002102F068FB0C2000215B
:100F500002F064FB0D20002102F060FB0F20002155
:100F600002F05CFB1020002102F058FB1120002150
:100F700002F054FB1220002102F050FB132000214C
:100F800002F04CFBC82002F02FF8102041F2B021F3
:100F900002F044FB1120072102F040FB322002F056
:100FA00023F8122040F2BD1102F038FB322002F08B
:100FB0001BF813204FF4A05102F030FB29200E2122
:100FC00002F02CFB322002F00FF82020002102F06A
:100FD00025FB2120002102F021FB42F293508442A4
:100FE00052D045F2084084427AD1302040F60D318B
:100FF00002F014FB312041F6231102F00FFB3220E6
:1010000041F6264102F00AFB332042F21C6102F055
:1010100005FB342042F2194102F000FB352040F676
:101020000B5102F0FBFA362041F2060102F0F6FA0B
:1010300037204FF4C26102F0F1FA382040F2067115
:1010400002F0ECFA39204FF4417102F0E7FA3A204D
:1010500040F6056102F0E2FA3B2040F6016102F041
:10106000DDFA3C204FF4877102F0D8FA3D2040F2BF
:101070000E5102F0D3FA3E2040F2034102F0CEFAC4
:101080003F2040F2076158E03020002102F0C6FA0C
:10109000312040F2076102F0C1FA322040F20531FE
:1010A00002F0BCFA3520002102F0B8FA362041F2F5
:1010B000046102F0B3FA37204FF4017102F0AEFA86
:1010C0003820012102F0AAFA392040F2077102F01B
:1010D000A5FA3C20002102F0A1FA3D200F212CE0CE
:1010E0003020062102F09AFA312040F2011102F07C
:1010F00095FA3220032102F091FA35204FF48371E2
:1011000002F08CFA362040F6023102F087FA3720DE
:1011100040F2023102F082FA382040F2077102F008
:101120007DFA3920072102F079FA3C204FF4C061A2
:1011300002F074FA3D2040F20B2102F06FFA5020C9
:10114000002102F06BFA5120EF2102F067FA5220E1
:10115000002102F063FA532040F23F1102F05EFAE0
:1011600042F2935084424FF41C5105D045F208409E
:10117000844218BF4FF42741602002F04FFA6120EB
:10118000012102F04BFA6A20002102F047FA802088
:10119000002102F043FA8120002102F03FFA822070
:1011A000002102F03BFA8320002102F037FA84206C
:1011B000002102F033FA8520002102F02FFA90205E
:1011C000102102F02BFA9220002102F027FA93203E
:1011D000032102F023FA95204FF4887102F01EFAE1
:1011E0009720002102F01AFA9820002102F016FA46
:1011F000032041F2380102F011FA072040F23711C2
:1012000002F00CFA04201C21012200F09BF80020BF
:1012100002B070BD40F234020146C1F2000200206B
:101220001180704740F214220146C1F200020020F2
:101230001160704740F220220146C1F200020020F6
:1012400011807047F0B581B005461044471E40F24A
:10125000B810C1F2000000780C4619440128A1F131
:10126000010622D1C5F30F21022002F0D7F9E9B21D
:10127000032002F0D3F9C7F30F21042002F0CEF9C6
:10128000F9B2052002F0CAF9C4F30F21062002F0DA
:10129000C5F9E1B2072002F0C1F9C6F30F21082019
:1012A00002F0BCF9F1B2092017E0A4B250202146A7
:1012B00002F0B4F9B1B2512002F0B0F9ADB252204F
:1012C000294602F0ABF9B9B2532002F0A7F9202069
:1012D000214602F0A3F92120294602F09FF901B02E
:1012E000F0BD00004CF22000C2F20900016841F09C
:1012F00030410160016A41F0040101627047000061
:101300004CF20C00C4F20200016843F6FF42CFF633
:10131000C07211400160016C114001644CF2200068
:10132000C2F20900016821F0F2610160704700001B
:101330004CF214024001C2F209021058C84000F0F9
:1013400001007047012303FA01F14CF20003C2F2DD
:101350000903002A03EB40100CBFC1618161704793
:101360004CF2C401C4F20F010A68002842F40043A1
:1013700008BF22F400430B60704700004CF20003EA
:101380004FF0010CC2F209030CFA01F14001002AEE
:101390001A580CBF22EA010111431950704700008E
:1013A0004CF2A810C4F20F000068C0F301500138DD
:1013B00002289ABF05A151F82000042040F2300114
:1013C000C1F200010968B1FBF0F0704701000000B4
:1013D00002000000080000004CF2380840F2282902
:1013E00040F21C2643F6083740F2480440F22C0A2B
:1013F000C2F20908C1F20009C1F20006C1F20007F9
:10140000C1F200044FF00055C1F2000A03E000BF32
:10141000306802F093FAD9F800004FF0FF3102F083
:10142000C7FA30684FF0FF3102F094FA386821684B
:101430008842EDDBC8F80050DAF8000002F0FCF951
:10144000C8F80450E4E7000040F21C2443F60835D5
:1014500040F2480640F22827C1F20004C1F200051C
:10146000C1F20006C1F2000707E000BF206802F0E9
:1014700065FA4FF47A7002F0DFF920684FF0FF311F
:1014800002F068FA286831688842EFDB386802F0B9
:1014900083FAEBE74CF2580840F2302940F21C2660
:1014A00040F22C2740F2400440F2380AC2F2090808
:1014B000C1F20009C1F20006C1F20007C1F2000446
:1014C0000425C1F2000A02E0306802F037FAD9F8C8
:1014D00000004FF0FF3102F06BFA30684FF0FF313F
:1014E00002F038FA386821688842EDDCC8F800500C
:1014F000DAF8000002F0A0F9C8F80450E4E70000B0
:1015000040F21C2440F22C2540F2400640F23027E5
:10151000C1F20004C1F20005C1F20006C1F20007E9
:1015200007E000BF206802F009FA4FF47A7002F079
:1015300083F920684FF0FF3102F00CFA2868316817
:101540008842EFDC386802F027FAEBE72DE9F04F2C
:1015500089B040F22425C1F20005296804460846F6
:101560004FF0FF3102F0F6F9601C40F2BC10C1F2FE
:1015700000005BD00078002858D043F6003BC1F251
:10158000000BDBF80000A04200F09A806FF07F4073
:10159000FFF740FEFF20FFF74DFE04EB44004FF045
:1015A000300A46F20C390AEBC006C0F200090020EE
:1015B00031464A46FFF752FB44F6A448C0F2000801
:1015C00058F824703846FFF7CBF86C46421C20468A
:1015D0003946FFF7E4F8002031462246FFF73EFB8C
:1015E0004CF2C000C0F2C000FFF714FEDBF80000B0
:1015F0004A4600EB40000AEBC0010020FFF72EFB3B
:10160000DBF8000046F2E93158F82020C0F2000172
:101610002046FEF7F1FEDBF80000224600EB40001A
:101620000AEBC0010020FFF719FB49E04CF2C00AA9
:101630006FF07F40C0F2C00AFFF7ECFDFFF792FAAF
:10164000FF20FFF7F7FD23A2002000210026FFF76F
:1016500005FB43F6003746F2E93B44F6A449302443
:10166000C1F20007C0F2000B0FF27808C0F20009C7
:101670006D4600BF386859F8262086424146284604
:1016800008BF5946FEF7B8FE386886426FF07F40C3
:1016900008BF5046FFF7BEFD002021462A46FFF74F
:1016A000DDFA1834C02C06F10106E3D140F2BC117A
:1016B0000120C1F2000140F224250870C1F20005AA
:1016C0006FF07F40FFF7A6FD286802F037F909B0F8
:1016D000BDE8F08F477265656E686F757365204D64
:1016E000656E750025730000FFF70AFEFFF7D2FA5A
:1016F00046F2FC10C0F20000FFF794FD4FF0FF30FF
:10170000FFF724FF43F60035C1F200052C6802E024
:10171000642002F091F801F08FFD0028F8D02968CC
:10172000C20705D0002903DD4FF0FF3005E000BF00
:1017300082070CD505290ADA0120084428602046D2
:10174000FFF704FF2C68FA2002F076F8E3E7400781
:1017500003D42868A042F2D1F5E70429F9D8DFE8DC
:1017600001F00306090C0F0001F084FDF1E700F021
:1017700069FFEEE701F03AF9EBE701F035FBE8E746
:1017800001F034FAE5E70000F0B54CF2680C4FF0D8
:10179000000E0124C600C4F2020C0F2988BF4FF0CE
:1017A000010E04FA01F488BF103946EA8E06C9B268
:1017B00066444900032756F8685C8F40BD4346F8ED
:1017C000685C56F8685C8A402A4346F8682C56F8EC
:1017D000282C03FA01F1BA4346F8282C56F8282C95
:1017E000059D114346F8281C5CF82010012D0CBF04
:1017F0002143A1434CF820100020F0BD44F2000129
:10180000C4F203010A6822F007020A6001220B6891
:1018100002FA00F018430860086840F08070086021
:101820004868B0F1FF3FFBDC4868C0F30B1070471D
:10183000B0B50024C4F2020465680120E906E06145
:101840000CD540F2C011C1F20001096840F2CA1281
:10185000C1F20002107009B104208847A8060DD516
:1018600040F2C011C1F20001096840F2C810C1F293
:1018700000000122027009B102208847280658D5CD
:1018800040F2CC10C1F200000168026991421DD9FA
:101890008568A5B16B1C836095F800C023685B0761
:1018A0000FD5236813F4706F03D0236813F4706F9F
:1018B00007D0AB1C83606B784CEA032C01E0B0F8D6
:1018C00018C01FFA8CF30132A3600261C268914212
:1018D0002FD9A168426892B1531C436011702268ED
:1018E00052070CD5226812F4706F03D0226812F4EC
:1018F000706F04D04268090A531C43601170C168BC
:10190000026801319142C16013D1206840F2C011D8
:1019100020F080002060C1F20001096840F2C4108C
:10192000C1F2000000220029027008BFB0BD0120F2
:101930008847B0BD80B500F031F880BD80B500F0BB
:10194000EFF980BD80B500F0F9F980BD80B500F0F9
:1019500005FA80BD80B500F069FA002080BD000066
:1019600080B500F095FA80BD80B500F00FFB80BD1A
:1019700080B500F037FB80BD80B500F05FFB80BD17
:1019800080B500F08FFB002080BD0000062070476E
:1019900040F20320C0F20A20704700002DE9F04F0A
:1019A00083B040F2E81AC1F2000A9AF80C200E4601
:1019B000910702D44FF0FF3523E0C4B20746142C40
:1019C0001AD10020C4F203004168002521F0020171
:1019D000416040F2F811C1F200014561C1E90055D2
:1019E000C1E90255C1E904558D618AF80450416886
:1019F00041F00201416004E09AF8040028B16FF060
:101A00000105284603B0BDE8F08F132C6FF00305E5
:101A1000F7D8DFE804F00E22870B0B0A0A0A0A0A3D
:101A20000A0A0A0A0A0A3AB7C6CDEAE76FF00605BB
:101A3000E7E70020C4F203004168002521F002011D
:101A400041604561DAF8080020F0FF00CAF808009C
:101A500002F0FB008AF80C00D3E70020C4F2030078
:101A6000416821F00201416000214161416821F09B
:101A70000401416001218AF8081042F004018AF84B
:101A80000C10416841F002014160002E00F0A58079
:101A90000297FFF785FC03014FEA06184FF0020C8E
:101AA0004FF0000B4FF0000902250020294604E00A
:101AB0002944B2F5807F104612D0B3FBF1F7B84548
:101AC00018D000F10102F3D9A8EB0B06E646A8EB0B
:101AD000070C6645F44682BFAC468146BB46E7E745
:101AE000FD2D05F10205E0D3BBF1000F04D14FF04D
:101AF000FF3586E7AC46814600215FFA8CF0C4F2E0
:101B0000030108610868102C20F47F4008604FEA48
:101B100009200A6880B240EA02000860029F19D1D9
:101B200000256EE70020C4F20300416821F00201A5
:101B30004160416841F0040141600121416102219D
:101B40008AF8081042F004018AF80C10416841F04C
:101B500002014160DAF80800C1B2012970D1C7F36F
:101B6000C141DFE801F002405B970026002006211A
:101B7000002200230096FFF707FEDAF8080020F4A1
:101B8000C0105BE0FFF70CFC0021C4F203010A69FE
:101B90000968D2B2C1F3072101315143B0FBF1F51D
:101BA0002FE740F2F810C1F200000683002528E775
:101BB000DAF80800FF21C0F2180108400121C0F244
:101BC000080188420CD100200621002E14BF0022FB
:101BD00001220025FFF7B6FB13E74FF0FF3510E7B2
:101BE0004FF0FF350DE720F4C010CAF808000026BA
:101BF00000200621002203230096FFF7C5FD0020E8
:101C000006210122FFF7BAFB002006210122FFF77F
:101C100099FBDAF8080040F400200FE020F4C0102F
:101C2000CAF808000026002006210222032300969D
:101C3000FFF7AAFDDAF8080040F48010CAF808009F
:101C4000DAF80800C1B202290DD120F40010B9025F
:101C5000CAF808001BD40026002006210222032314
:101C60000096FFF791FDC7F30221052919D800203E
:101C7000C4F20300DFE801F003182430383B0168A8
:101C800021F030010160016821F0C00133E06FF004
:101C90000A05B6E620F4C010CAF808006FF00A057D
:101CA000AFE66FF00705ACE6016821F03001016096
:101CB000016821F040010160016841F080011AE0F3
:101CC000016821F030010160016841F040010160CC
:101CD000016821F080010EE0016821F0300101600F
:101CE000016841F0C00106E00168012201E00168DD
:101CF000022262F305110160C7F305310A1F0C2AA5
:101D00000BD80268013922F00F02114301607803F9
:101D10006FF0090101EAE07573E66FF0080570E6FF
:101D200040F2E810C1F2000040F2F811007BC1F26D
:101D30000001C968400701EAE070704740F2E8100E
:101D4000C1F2000001794279807901F0010162F36A
:101D5000410100F0010041EA8000704710B5002009
:101D6000C4F20300C46904F003010162C168890779
:101D700040F2F811C1F200011BD50B68D1F810E058
:101D8000734516D98B6863B15A1C8A6093F800C0FA
:101D90000268120707D59A1C8A605A784CEA022C0E
:101DA00001E0B1F818C01FFA8CF282600EF1010256
:101DB0000A61C268520729D5D0F808C00B68CA6802
:101DC000934223D94B686BB15A1C4A6083F800C018
:101DD0000268120706D54A684FEA1C2C531C4B6058
:101DE00082F800C0CA680B6801329A42CA600DD1FD
:101DF0004169002221F00F01416140F2E810C1F277
:101E000000000168027109B101208847E0070BD08A
:101E100040F2E810C1F2000001680122002942717D
:101E200008BF10BD0220884710BD0000B0B582B0C9
:101E300040F2E814C1F20004217BC90725D12060DB
:101E400040F2F8100025C1F20000C0E90055C0E9D9
:101E50000255C0E9045585610020072102220023B4
:101E6000A580A5710095FFF78FFC002008210222B4
:101E700000230095FFF788FC00200921022200239F
:101E80000095FFF781FC0120207302B0B0BD000077
:101E900010B502283DD0012838D000281CBF6FF0B3
:101EA000040010BD00F08AFB4CF2C400C4F20F0025
:101EB0000168002441F4806101600C21C4F2030137
:101EC00003228C608C6141F80C4C41F8084C4C604A
:101ED0004A61016821F48061016000F067FB40F213
:101EE000E81040F2F811C1F20000C1F20001C1E9AE
:101EF0000044C1E90244C1E904448C61017B84804F
:101F000001F0FD0184710173204610BD6FF00304E0
:101F100034E040F2E810C1F20000017BCA0704BFC0
:101F20004FF0FF3010BD8A074FF0000426D44CF26A
:101F3000C40EC4F20F0EDEF8002041F0020142F49C
:101F40008062CEF80020DEF8E42022F44012CEF8C1
:101F5000E420DEF8E4C00C224CF48013C4F2030247
:101F6000CEF8E4300323946053618480847101735C
:101F70001068400704D552F8040CF9E7204610BD5C
:101F800000F014FB00F026FB002010BD02460028E4
:101F90006FF0040018BF002900D1704740F2E81329
:101FA000C1F20003187B40075CBF4FF0FF30704761
:101FB000187900281CBF6FF001007047012098803D
:101FC0000020987140F2F813C1F20003C3E9001237
:101FD0001421C4F203010F22C3E9020018610A6050
:101FE00070470000024600286FF0040018BF002967
:101FF00000D1704740F2E813C1F20003187B40079C
:102000005CBF4FF0FF307047187900281CBF6FF09D
:1020100001007047012098800020987140F2F81369
:10202000C1F20003C3E900101421C3E90220C4F285
:1020300003010F2218610A60704700000346002860
:102040006FF0040018BF002900D17047002A08BFB4
:10205000704740F2E81CC1F2000C9CF80C004007ED
:102060005CBF4FF0FF3070479CF8040000281CBF95
:102070006FF0010070470120ACF8040000208CF8DC
:10208000060040F2F81CC1F2000CCCE9002114213A
:10209000C4F203010F22CCE90230CCF810000A6030
:1020A0007047000010B582B00024002006210022F5
:1020B00000230094FFF768FB002007210022002383
:1020C0000094FFF761FB0020082100220023009408
:1020D000FFF75AFB00200921002200230094FFF79C
:1020E00053FB40F2E810C1F20000047302B010BDCF
:1020F00040F21C2443F6083540F2382640F22C27E3
:10210000C1F20004C1F20005C1F20006C1F20007ED
:1021100020684FF0FF3101F01DFC0020FFF76EFB3F
:1021200028600120FFF76AFB30600220FFF766FBA2
:102130003860206801F002FC4FF47A7001F07CFBFB
:10214000E6E700004CF2380843F6043940F21C265A
:1021500040F2382740F2440440F23C0AC2F2090837
:10216000C1F20009C1F20006C1F20007C1F2000489
:102170004FF00045C1F2000A03E000BF306801F0F3
:10218000DDFBD9F800004FF0FF3101F011FC3068A1
:102190004FF0FF3101F0DEFB386821688842EDDC4A
:1021A000C8F80050DAF8000001F046FBC8F8045007
:1021B000E4E7000040F21C2440F2382540F24406D7
:1021C00043F60437C1F20004C1F20005C1F2000673
:1021D000C1F2000707E000BF206801F0AFFB4FF439
:1021E0007A7001F029FB20684FF0FF3101F0B2FB5B
:1021F000286831688842EFDC386801F0CDFBEBE7F6
:1022000010B54CF28804C4F20F042068D4F884108E
:1022100000F04070B0F1407F01F003001BD1DFE817
:1022200000F00228400220682268400080B240F698
:1022300000110230C0F23D01C2F30742A0FB0101D0
:1022400001320023FEF760F8E26F0023D2B20132C0
:10225000FEF75AF84AE0DFE800F002384202E06F89
:1022600040F60011C0B20130C0F23D01B1FBF0F008
:102270003CE020682268400080B241F60031023024
:10228000C0F2B701C2F30742A0FB010101320023F3
:10229000FEF73AF8E26F0023D2B20132FEF734F8CB
:1022A00024E020680021C7F6FF7101EA00402168A0
:1022B00000F58030C1F30741E26F0131B0FBF1F06E
:1022C000D1B20131B0FBF1F010E0E06F41F6003126
:1022D000C0B20130C0F2B701B1FBF0F006E0E06F30
:1022E0004FF40041C0B20130B1FBF0F040F23001D8
:1022F000C1F20001086010BD4CF28C00C4F20F0066
:102300002021C0F81411D0F81411890604D500BF9B
:10231000D0F814114906FBD50321816700216322FF
:10232000C0F81C11C0F820110121C0F20502C0F84C
:10233000801040F8082CAA2255230260036040F860
:102340000C1C0260036000BF50F8041C4901FBD55F
:10235000032140F80C1CAA2101605521016000BF37
:1023600050F8041C01F04071B1F1407FF8D12321F5
:102370008161AA2155220123016202624361016247
:10238000026200BFC1694905FCD503214161AA2150
:1023900001625521016200BFC16901F44071B1F5CC
:1023A000407FF9D148F2DE71C0F2284181630021FB
:1023B000C0F83C1150F88C1C042262F30F3140F835
:1023C0008C1C70474CF2C400C4F20F00016841F04D
:1023D000080101604CF20000C4F20200016841F003
:1023E000500101604CF20C00C4F200008321017026
:1023F000002100F8081C612100F80C1C0321017069
:10240000704700000178002908BF70474CF20002B5
:10241000C4F20002137D9B06FCD5117010F8011F59
:102420000029F7D17047000090B04CF200054CF243
:10243000380844F64359C4F20005C2F209080027DF
:102440006C46C3F644294FF0004A4FF0040B4FF09E
:10245000005604E0E05501370A2001F0EDF9287D2F
:10246000C007F9D028783E2F01DC0A28F2D10020DD
:10247000E055009800274845EED1204618A1FEF708
:102480005DF90028204619A118BFC8F80060FEF7C2
:1024900055F90028204618A118BFC8F80460FEF7B7
:1024A0004DF90028204617A118BFC8F820B0FEF744
:1024B00045F90028204616A118BFC8F824B0FEF739
:1024C0003DF90028204616A118BFC8F800A0FEF765
:1024D00035F9002818BFC8F804A00027BCE700BFE2
:1024E0004845415445523A4F4E000000484541543A
:1024F00045523A4F464600004C494748543A4F4EE1
:10250000000000004C494748543A4F46460000003E
:10251000535052494E4B4C45523A4F4E000000002A
:10252000535052494E4B4C45523A4F4646000000DC
:1025300092B040F21C2643F6083840F2382940F2A7
:102540002C2AC1F20006C1F20008C1F20009C1F252
:10255000000A0FA402AD00BF30684FF0FF3101F058
:10256000F9F9D8F80020D9F80030DAF800702846D8
:1025700021460097FDF740FF306801F0DFF928465B
:10258000FFF740FF40F6B83001F056F9E4E700BF2E
:1025900054454D503A25647C4D4F4953543A256477
:1025A0007C4C494748543A25640A00004EF280208A
:1025B000CEF200004FF40041016070474EF28010EF
:1025C000CEF200004FF400410160BFF34F8FBFF324
:1025D0006F8F70474EF20010CEF200004FF40041B2
:1025E0000160704740F20501C1F20001097800293D
:1025F00008BF7047006844F2E90CC0F2000C4FF6C7
:10260000FF7100DF7047000040F20501C1F20001D8
:102610000978002908BF7047006844F2110CC0F225
:10262000000C00DF7047000001F012F946F2E420D0
:10263000C0F20000002101F0C7F901F01BF900BF52
:10264000FEE700002DE9F04F89B040F21820C1F2FA
:102650000000007846F221380028C0F2000840F05F
:10266000858040F22420C1F2000000684FF0FF3165
:1026700001F070F96FF07F40FEF7CCFDFEF772FAC3
:10268000FF20FEF7D7FDC8A200200021FEF7E6FAE2
:1026900046F20C3B46F2E03946F2E2363025C7A45A
:1026A000C0F2000BC0F20009C0F200060DF10107F4
:1026B00018E000BF0068800046F22533C0F2000336
:1026C00058BF43463846FDF797FEFF20FEF7B2FDA0
:1026D000002029463A46FEF7C1FA1835782D04F154
:1026E000040428D06FF07F404CF2C001302DC0F2BE
:1026F000C00108BF0846FEF78DFD002029465A4656
:10270000FEF7ACFA22684CF23400302D3146C2F2AA
:10271000090008BF4946CDD0482D09D1006843467D
:10272000002846F22530C0F2000048BF0346C9E742
:10273000006A4007C0E74FF47F00FEF77BFDA2A2CE
:1027400000209021FEF78AFAA5A20020A821FEF71A
:1027500085FA40F22420C1F20000006801F0EEF892
:1027600040F218210120C1F2000108704FF0FF3B38
:1027700000244FF00009002608E000BF142001F0FB
:102780005BF800202C46002840F0F48000F054FD57
:10279000054601F0A5F80746A0EB09006428EDD333
:1027A000E0074FF000000AD115F0010107D0002129
:1027B000002EC8BF711E0120B346B9460E46A107C0
:1027C0000AD415F0020107D00221022EB8BF711CF5
:1027D0000120B346B9460E4614F0180F4FF0000A18
:1027E00009D115F0180106D0304600F09DFE0120F9
:1027F000B9464FF0010A61070ED415F004010BD061
:1028000040F21820C1F20000002101700620B946F4
:102810000028B8D1B2E700BF002800F0828040F263
:102820002420C1F2000000684FF0FF3101F092F85F
:10283000BAF1000F22D04CF2C000C0F2C000FEF787
:10284000E9FC06EB4600302101EBC00A46F20C32EF
:1028500000205146C0F20002FEF700FA44F6BC40E8
:10286000C0F2000050F826204CF23400C2F20900F9
:10287000012E35D05EBB006880002AE0B34549D008
:102880001BF10100D7D06FF07F40FEF7C3FC0BEBCC
:102890004B00302101EBC00A46F20C3200205146B9
:1028A000C0F20002FEF7DAF944F6BC40C0F20000C4
:1028B00050F82B204CF23400C2F20900BBF1010F9A
:1028C00034D0BBF1000F3BD1006880003AE0006AD1
:1028D000400746F22533C0F2000358BF434608E0E4
:1028E00000684346002846F22530C0F2000048BF89
:1028F00003460DF1010746F2E0313846C0F200010F
:10290000FDF77AFDFF20FEF795FC002051463A4680
:10291000FEF7A4F940F22420C1F20000006801F0A3
:102920000DF8002000287FF42EAF27E7006843460B
:10293000002846F22530C0F2000048BF034607E0F9
:10294000006A400746F22533C0F2000358BF4346F1
:102950000DF1010746F2E2313846C0F20001FDF701
:102960004BFDFF20FEF766FC002051463A46FEF77D
:1029700075F960E740F22424C1F2000420684FF0AA
:10298000FF3100F0E7FF6FF07F40FEF743FCFEF7FA
:10299000E9F8206800F0D2FF4FF0FF30FEF7D6FDD7
:1029A00009B0BDE8F08F00BF4163747561746F7248
:1029B0007320436F6E74726F6C000000D963000067
:1029C000CF630000EE63000055702F446E3A5365EC
:1029D0006C656374204C2F523A4F4E2F4F46460081
:1029E00043656E7465723A45786974002DE9F04F5D
:1029F00085B040F2242BC1F2000BDBF800004FF051
:102A0000FF3100F0A7FF6FF07F40FEF703FCFEF7F9
:102A1000A9F8FF20FEF70EFC6EA200200021FEF7B1
:102A20001DF946F2BA32C0F2000200203021FEF752
:102A300015F946F24832C0F2000200204821FEF7A4
:102A40000DF94FF47F00FEF7F5FB46F2A832C0F215
:102A5000000200207821FEF701F90020FEF7EAFBD2
:102A600040F24806C1F20006326846F23A316D463D
:102A7000C0F200012846FDF7BFFC002060212A4675
:102A8000FEF7ECF8DBF8000000F058FF46F20C39D6
:102A9000C0F2000900244FF0000A06E0142000F004
:102AA000CBFE0120BA4600287CD000F0C5FB0746CB
:102AB00000F016FF8046001B6428EFD35FEACA705F
:102AC00030D117F001002DD030684FF0FF310A30BF
:102AD00030603068B0F5805FA4BF40F6FF703060B2
:102AE000DBF8000000F036FF6FF07F40FEF792FB4E
:102AF0000020FEF79FFB002060214A46FEF7AEF85B
:102B0000326846F23A312846C0F20001FDF774FC03
:102B1000002060212A46FEF7A1F8DBF8000000F053
:102B20000DFF44465FEA8A702FD417F002002CD0C4
:102B300030684FF0FF310A3830603068B0F1FF3F45
:102B4000DCBF00203060DBF8000000F003FF6FF016
:102B50007F40FEF75FFB0020FEF76CFB002060214A
:102B60004A46FEF77BF8326846F23A312846C0F210
:102B70000001FDF741FC002060212A46FEF76EF8B7
:102B8000DBF8000000F0DAFE44465FEA4A703FF5E9
:102B900085AF17F004003FF481AF002044460028C1
:102BA0007FF483AFDBF800004FF0FF3100F0D2FE7E
:102BB0006FF07F40FEF72EFBFDF7D4FFDBF800003F
:102BC00000F0BCFE4FF0FF30FEF7C0FC05B0BDE8E2
:102BD000F08F00BF5365742048656174657220549E
:102BE00068726573686F6C64000000002DE9F04F37
:102BF00085B040F2242BC1F2000BDBF800004FF04F
:102C0000FF3100F0A7FE6FF07F40FEF703FBFDF7FA
:102C1000A9FFFF20FEF70EFB6EA200200021FEF7A9
:102C20001DF846F2BA32C0F2000200203021FEF751
:102C300015F846F24832C0F2000200204821FEF7A3
:102C40000DF84FF47F00FEF7F5FA46F2A832C0F215
:102C5000000200207821FEF701F80020FEF7EAFAD2
:102C600040F24006C1F20006326846F23A316D4643
:102C7000C0F200012846FDF7BFFB002060212A4674
:102C8000FDF7ECFFDBF8000000F058FE46F20C39CF
:102C9000C0F2000900244FF0000A06E0142000F002
:102CA000CBFD0120BA4600287CD000F0C5FA0746CB
:102CB00000F016FE8046001B6428EFD35FEACA705E
:102CC00030D117F001002DD030684FF0FF310A30BD
:102CD00030603068B0F5805FA4BF40F6FF703060B0
:102CE000DBF8000000F036FE6FF07F40FEF792FA4E
:102CF0000020FEF79FFA002060214A46FDF7AEFF54
:102D0000326846F23A312846C0F20001FDF774FB02
:102D1000002060212A46FDF7A1FFDBF8000000F04B
:102D20000DFE44465FEA8A702FD417F002002CD0C3
:102D300030684FF0FF310A3830603068B0F1FF3F43
:102D4000DCBF00203060DBF8000000F003FE6FF015
:102D50007F40FEF75FFA0020FEF76CFA002060214A
:102D60004A46FDF77BFF326846F23A312846C0F208
:102D70000001FDF741FB002060212A46FDF76EFFB0
:102D8000DBF8000000F0DAFD44465FEA4A703FF5E8
:102D900085AF17F004003FF481AF002044460028BF
:102DA0007FF483AFDBF800004FF0FF3100F0D2FD7D
:102DB0006FF07F40FEF72EFAFDF7D4FEDBF800003F
:102DC00000F0BCFD4FF0FF30FEF7C0FB05B0BDE8E2
:102DD000F08F00BF536574204C6967687420546895
:102DE000726573686F6C64002DE9F04F85B040F236
:102DF000242BC1F2000BDBF800004FF0FF3100F094
:102E0000A9FD6FF07F40FEF705FAFDF7ABFEFF204E
:102E1000FEF710FA6EA200200021FDF71FFF46F218
:102E2000BA32C0F2000200203021FDF717FF46F24F
:102E30004832C0F2000200204821FDF70FFF4FF496
:102E40007F00FEF7F7F946F2A832C0F20002002038
:102E50007821FDF703FF0020FEF7ECF940F244066D
:102E6000C1F20006326846F23A316D46C0F2000106
:102E70002846FDF7C1FA002060212A46FDF7EEFE44
:102E8000DBF8000000F05AFD46F20C39C0F20009F0
:102E900000244FF0000A06E0142000F0CDFC0120D1
:102EA000BA4600287CD000F0C7F9074600F018FDAC
:102EB0008046001B6428EFD35FEACA7030D117F058
:102EC00001002DD030684FF0FF310A30306030689B
:102ED000B0F5805FA4BF40F6FF703060DBF8000003
:102EE00000F038FD6FF07F40FEF794F90020FEF708
:102EF000A1F9002060214A46FDF7B0FE326846F293
:102F00003A312846C0F20001FDF776FA0020602130
:102F10002A46FDF7A3FEDBF8000000F00FFD444653
:102F20005FEA8A702FD417F002002CD030684FF07F
:102F3000FF310A3830603068B0F1FF3FDCBF00205D
:102F40003060DBF8000000F005FD6FF07F40FEF719
:102F500061F90020FEF76EF9002060214A46FDF776
:102F60007DFE326846F23A312846C0F20001FDF794
:102F700043FA002060212A46FDF770FEDBF80000CE
:102F800000F0DCFC44465FEA4A703FF585AF17F07D
:102F900004003FF481AF0020444600287FF483AF53
:102FA000DBF800004FF0FF3100F0D4FC6FF07F4001
:102FB000FEF730F9FDF7D6FDDBF8000000F0BEFCAF
:102FC0004FF0FF30FEF7C2FA05B0BDE8F08F00BF4A
:102FD00053657420537072696E6B6C65722054680F
:102FE000726573686F6C640040F23001C1F20001D9
:102FF0000968890B4843002808BF704700BF00BF1D
:1030000000BF00BF00BF00BF00BF00BF00BF00BFC8
:1030100000BF013800BFF1D170470000FFF7F0F8A2
:10302000FDF7F8FCFEF75EF9FFF7CCF900F010FCB5
:1030300046F22420C0F2000000F06AFC40F21C219D
:10304000C1F20001086046F22820C0F2000000F042
:103050005FFC40F22421C1F20001086046F23020FA
:10306000C0F20000012100F081FC40F22821C1F2F1
:103070000001086046F23820C0F20000012100F093
:1030800075FC43F60431C1F20001086046F23420B9
:10309000C0F20000012100F069FC40F23021C1F2D1
:1030A0000001086046F29420C0F20000002100F008
:1030B0008BFC46F2D420C0F20000002100F084FC1A
:1030C00046F25420C0F20000002100F07DFC46F2E0
:1030D0004420C0F20000002100F076FC46F2B4204B
:1030E000C0F20000002100F06FFC46F2A420C0F204
:1030F0000000002100F068FC46F27420C0F20000DD
:10310000002100F061FC46F26420C0F200000021C2
:1031100000F05AFC46F2C420C0F20000002100F08A
:1031200053FC46F28420C0F20000002100F04CFC69
:1031300000F0A0FBFEE70000FEE70000FEE7000055
:10314000B0B544F6D040C0F20000456A132001211A
:10315000A847732000F098F9002000F095F90020AE
:1031600000F092F90446002000F08EF940EA0424B1
:1031700013200021A8472046B0BD000010B582B042
:10318000002400200621002202230094FEF7FCFA0E
:1031900000200721002202230094FEF7F5FA002008
:1031A0000821002202230094FEF7EEFA00200921F4
:1031B000002202230094FEF7E7FA002007210122F3
:1031C000FEF7DCF8002006210122FEF7BBF8002004
:1031D00007210122FEF7B6F8002006210022FEF7A3
:1031E000B1F87020012100F067F90020012100F002
:1031F00063F9002006210122FEF7A4F80020062131
:103200000022FEF79FF87320012100F055F90020FD
:10321000002100F051F90446002006210122FEF7AA
:1032200091F8204602B010BD80B5002000F0AAF948
:10323000FFF786FF80BD00004CF23400C2F20900A7
:1032400001680223C1F3C051026803EA126211440B
:103250000268042303EA924211440268082303EA45
:10326000525200681144102202EA9050084480F043
:103270001F0070472DE9F04FB5B040F22424C1F291
:10328000000420684FF0FF3100F064FB6FF07F40D6
:10329000FDF7C0FFFDF766FC206800F04FFB46F22B
:1032A0000040C0F20000016840F21C260C91416809
:1032B0004FF0000B0B9181684FF000080A91C16834
:1032C00000690991089046F21440C0F200000168BC
:1032D000C1F2000607914168069181680591C168B5
:1032E000049101690391817D808A0291019009E036
:1032F000142000F0A1FA4FF0010AC846BAF1000FFD
:1033000000F0998040F22429C1F20009D9F80000A8
:103310004FF0FF3100F01EFB6FF07F40FDF77AFFAA
:1033200000204FF0000AFDF785FF46F20C32002026
:103330004821C0F20002FDF791FC30684FF0FF31E8
:1033400000F008FB0C982DAC15900B9846A1169038
:103350000A981790099818900898199007980D9056
:1033600006980E9005980F9004981090039811906D
:1033700002988DF84A000198ADF8480043F60830ED
:10338000C1F2000002682046FDF736F840F238200E
:10339000C1F20000026825AF384636A1FDF72CF8CF
:1033A00040F22C20C1F2000002681DAD284634A175
:1033B000FDF722F8306800F0C1FAFF20FDF73AFF70
:1033C0000020182115AAFDF749FC0020FDF732FF67
:1033D000002060212246FDF741FC002078213A467A
:1033E000FDF73CFC002090212A46FDF737FC4FF406
:1033F0007F00FDF71FFF0020A8210DAAFDF72EFC7E
:10340000D9F8000000F09AFAFFF716FF814600F0A5
:1034100067FA5FEA48713FF56BAF19F004013FF4BA
:1034200067AFA0EB0B0163297FF662AF8346BAF169
:10343000000F7FF467AF40F22424C1F2000420683B
:103440004FF0FF3100F086FA6FF07F40FDF7E2FEAB
:10345000FDF788FB206800F071FA4FF0FF30FEF7AF
:1034600075F835B0BDE8F08F54656D703A2025646D
:10347000000000004D6F6973742025640000000097
:103480004C6967682025640010B582B08DF807008C
:1034900044F6D040C0F20000C369846A0DF1070011
:1034A0000DF1060101229847A047C007FCD19DF805
:1034B000060002B010BD0000F0B581B00546481E00
:1034C000B0FA80F00C464209002009210026FDF7E1
:1034D00055FF072711E000BF00200921FDF728FF55
:1034E000B8400643002007210122FDF72BFF0120F1
:1034F000FFF77AFD013F781C12D00020072100223F
:10350000FDF720FF0120FFF76FFD012CE4D125FA24
:1035100007F000F0010200200921FDF713FFE1E7A9
:10352000F0B201B0F0BD0000022810D001281BD07D
:10353000002818BF70474CF23400C2F2090001683D
:1035400089004FF000514CBF8160416070474CF2E0
:103550003400C2F20900016A490742BF04218162B6
:1035600070470421416270474CF23400C2F20900F6
:103570000168B1F1FF3F4FF00041D4BF816041606D
:1035800070470000F0B581B044F6D041C0F20001B0
:10359000D1E909564F69044613200121A84770203C
:1035A000ADF801000DF1010003218DF80340B8478B
:1035B000B047C007FCD113200021A84701B0F0BDDF
:1035C00010B582B040BAADF8060044F6D040C0F263
:1035D00000004269846A0DF106000221904700BF95
:1035E000A047C007FCD102B010BD000080B544F672
:1035F000D040C0F20000426A13200121904772209F
:10360000FFF742FF80BD000080B544F6D040C0F215
:103610000000426A13200021904780BDF0B581B0C0
:103620000C4670218DF80110010A8DF8021044F645
:10363000D041C0F20001D1E909564F698DF803006D
:1036400013200121A8470DF101000321B84700BF55
:10365000B047C007FCD113200021A84772208DF885
:103660000100200A8DF80200132001218DF803408B
:10367000A8470DF101000321B84700BFB047C007BC
:10368000FCD113200021A84701B0F0BD00000000CC
:1036900010B5002A06DA22F00042D21D22F00703FC
:1036A000102203E0D21C22F003030C2213B19C1859
:1036B0008C4201D9012010BD024401448360C0E95D
:1036C0000021C91AD018884202D810600246F9E7D2
:1036D0000020106010BD30380A2801D20120704748
:1036E0000020704708480068C0010BD507480068F3
:1036F000C00707D0054880380068002802DA04496E
:103700000120087070470000FCED00E0800E00E032
:10371000280000104FF06042D36F002BFCD0036BE9
:10372000D367D36F002BFCD0C07840EA0120A2F809
:103730007C0070474FF06041CA6F002AFCD081F8CE
:103740007C0070470EB5802200B109B110460AE036
:1037500001780129FAD101A900F034F8042801D038
:10376000002000E01020DDE9011203B000BD70B5BB
:103770000D46040003D012B92078012801D0802022
:1037800070BD204600F036FB28B12946204600F0E7
:1037900044F8002070BD812070BD10B500F0A8FA7B
:1037A00010B10178022901D0802010BD4188A1F517
:1037B0007F42FF3A03D000F037F8002010BD81208F
:1037C00010BD000010B504468089002824D060890F
:1037D00004EB800000690860606840B160780228EE
:1037E00005D10021204600F009FD00F0F7FC04F1AE
:1037F0000C0000BFD0E85F1F491E8AB2C0E8512FFD
:103800000029F7D16089401C80B26081E18988423B
:1038100001D100206081042010BD10B500F0EEFC45
:10382000BDE8104000F0DABC10B5002100F0E6FC65
:10383000BDE8104000F0D2BCEFF3058109B1822051
:103840007047DFF808C000DF70470000DD48000067
:10385000EFF3058008B182207047EFF31480C007B2
:1038600003D0DFF80CC000DF704701F041B8000062
:10387000F148000088B0EFF3058010B1822008B055
:103880007047EFF3148010F00301134806D00129AC
:103890001BD0022911D0032919D113E008A981F303
:1038A00009880078C0070BD05FF0020080F314880D
:1038B000BFF34F8FBFF36F8F09E00078C00706D1C9
:1038C0000320F3E70078C00701D0FF20D7E7DFF837
:1038D0000CC000DFD3E7000019620000614900005E
:1038E000EFF3058008B100207047DFF808C000DF63
:1038F00070470000A9490000EFF305820AB1FFF705
:1039000021BFDFF808C000DF70470000054A000053
:10391000EFF3058109B100207047EFF31481C90767
:1039200002D10449497819B1DFF80CC000DF7047B3
:1039300001F085B8040000103F4A0000EFF3058154
:1039400009B182207047DFF808C000DF704700002F
:103950005B4A0000EFF305820AB182207047DFF86E
:1039600008C000DF704700007D4A0000EFF30582C9
:103970000AB100207047EFF31482D20702D1044A43
:1039800052781AB1DFF80CC000DF704701F093B82D
:1039900004000010B74A0000EFF3058109B1FFF7FA
:1039A000FCBEDFF808C000DF70470000DB4A000003
:1039B000EFF3058212B14FF0FF307047DFF804C01B
:1039C00000DF7047034B0000EFF305820AB10020CF
:1039D0007047EFF31482D20702D1044A52781AB129
:1039E000DFF80CC000DF704701F0A4B8040000103D
:1039F000354B0000DFF80CC000DFDFF80CC000DF43
:103A0000FEE70000A14B0000BD4B0000DFF804C042
:103A100000DF7047F54B0000094C4FF0FF35294699
:103A20002068FFF769FF02460846102AF7D1FFF722
:103A3000EDFF0028F3D0024608469047EFE700006C
:103A400000350010074801684FF0E0204161002177
:103A50008161072101610448016841F07F410160F3
:103A6000401770470863000020ED00E0024800683E
:103A7000C0F380607047000004ED00E04FF0E020EC
:103A8000806902490968081A70470000086300004D
:103A900050E8001F31B10B6840E80032002AF7D12E
:103AA00008467047BFF32F8FFAE710B568B161B1D0
:103AB0000B3121F00302016844680B1A1B1B93426F
:103AC00005D2084609680029F5D1002010BD210063
:103AD00007D021180368C1E90032016001F1080034
:103AE00010BD4260083010BD70B50D46002812D0E0
:103AF0004FF6FF71084C884204D2226801461046F6
:103B000000F0AAFB20684570044800F0DDF8BDE82D
:103B1000704000F0A1BC70BD0C00001084000010CB
:103B20000F4810B50D4942680E480B680068934273
:103B300004D00A60CB88421E1A448A808A8880B2E8
:103B400082420AD100200860054800F0BDF8014615
:103B5000BDE81040024800F0A3BB10BD20000010DB
:103B6000840000101C00001070B5194DE868002892
:103B70002CD0A88A401EA882002621E0A06838B177
:103B800061684160606810B1A16881606660A6608C
:103B90000F482146183800F083FBA08AA88260787D
:103BA000042804D10B49E08A09880844A082012036
:103BB0006070E068E860E06808B10561E660266171
:103BC000A88A002802D1EC68002CD7D170BD000073
:103BD0009C0000101C00001070B504000FD00D4DAB
:103BE000A17801262868827891420CD900F074FBF4
:103BF000286846702046BDE8704000F02DBC06489D
:103C000000F062F8F7E766702146BDE870400248B0
:103C100000F046BB0C000010840000100321FFF7E9
:103C200063BF000010B50446008B08432083627810
:103C3000618B062A18D0052A19D1084217D001EA4B
:103C40000002628388432083204600F070FB01203D
:103C50006070628B0821204600F065FB2146BDE8BC
:103C60001040034800F01CBB31EA0002EAD010BD4E
:103C700084000010814202D342688A4201D80120A8
:103C8000704702680A60BFF35F8F50E8003F0A6820
:103C90009A42F6D140E80012002AF2D10020704783
:103CA00068B161B10022083902E00246006830B113
:103CB0008842FAD12AB100681060002070470120C4
:103CC000704700214160F8E70146406842684A6059
:103CD0000B780022022B05D0012B03D0032B01D03F
:103CE0004260704743680BB19960426082607047E0
:103CF000810700D00020704770B5044600201546AB
:103D0000207001226270A17084F824106060A060AD
:103D1000E06020612062A082E0822083608384F8DA
:103D20002500E08C18B90548FFF7B2FEE06229468D
:103D30002046BDE8704000F01DB8000040020010B1
:103D400008B1082901D2012070470144091F00224F
:103D500001600A604260104670470000034800217D
:103D6000016003490988C1807047000020000010ED
:103D70002C62000070B5C28C1C4D930802D12A88B9
:103D8000C2F38D03C26A02EB8302540700D5121FEF
:103D90004FF0807442E9021400242646B2F140023A
:103DA00042F82460641C0E2CFAD3C4691462826247
:103DB00001632968C90014D5112B12D94FF0FF31C6
:103DC000103B11EB53014FF0CC3305D042F8043CCB
:103DD00042F8083D491EF9D1C16A121F8A4200D932
:103DE0001360C06A0249016070BD000040620000BB
:103DF000A52E5AE2C1898089081A704701220270F3
:103E000000224270827042600281428110398281B8
:103E10008908C181704700002DE9F04104464068DF
:103E20000E464FF0000804F10C05E8B36078012756
:103E300001283ED0022813D003285CD10846FFF7A2
:103E400027FE050057D02046FFF73EFF04462946CF
:103E500000F066FA6770204600F069FA214621E01A
:103E60002046FFF731FF0646002100F059FA21896C
:103E7000F06904EB81010861D5E85F0F401C81B255
:103E8000C5E8501F0028F7D12089401C80B220814E
:103E9000E189884201D1A4F808807770304600F0AB
:103EA00046FA3146174800E00CE0BDE8F04100F06A
:103EB000F7B92046FFF708FF04463246102100F00C
:103EC00032FAC7E7A089E189884216D2208904EB3B
:103ED00080000661D5E85F0F401C81B2C5E8501F25
:103EE0000028F7D12089401C80B22081E1898842D6
:103EF00001D1A4F80880BDE8F081BDE8F0410320BD
:103F0000FFF71AB98400001070B504468089154681
:103F10000026C0B3608904EB8000006908606089F6
:103F2000401C80B26081E189884200D1668160686E
:103F300010B1607802280BD014F10C04D4E85F0FA4
:103F4000401E81B2C4E8501F0028F7D1002070BD88
:103F50002046FFF7B9FE0546002100F0E1F921896E
:103F6000E86904EB810108612089401C80B220814E
:103F7000E189884200D12681284600F0D8F92846F8
:103F8000FFF72AFEE2E7FFE73DB10B4862680168F0
:103F90002AB1204600F084F908E0012070BD61607C
:103FA00001684E6000688460012060700821284626
:103FB000FFF79AFDF1E700000C000010002814D074
:103FC000411C13D00C4A4FF6FE7190420CD800EB06
:103FD0004002C2EBC0120948036803EBC202521E42
:103FE000B2FBF3F0884204D9084670474FF6FF70E1
:103FF000704780B27047000000093D001462000065
:10400000032101700021418041608160C1607047DF
:104010002DE9F0410446408820B1314DA1682A685D
:10402000914202D0FF20BDE8F081401E0004000C48
:10403000608053D12968086AA04209D1E06808620B
:1040400008E0C268A24202D1E268C26002E0104603
:104050000028F6D191F824000A6A06E053681BB1E3
:104060009B78834200D91846D268002AF6D188701E
:10407000DFF870806168012611B32046FFF724FE47
:104080000746002100F04CF9384600F050F96680F0
:10409000A760386AE0603C622968D8F804008A7832
:1040A0008078824201D3384616E00E4800F0F8F8D6
:1040B00039460C4800F0F4F8286846707E700AE033
:1040C000D8F804108A782968824207D9054800F098
:1040D000E7F8286846700020FFF77EFD0020A2E781
:1040E0000C0000108400001070B51C4D0E460446F4
:1040F0004188286861B1A268824210D1A1F57F4051
:10410000FF3803D0491C6180002070BDFF2070BDC6
:10411000A060016AE160046201206080F4E776B18A
:1041200091788078814203D29070A06800F0DEF828
:10413000606830B12046296800F0B2F808E001203C
:1041400070BD286860602968002048602868846025
:1041500009213046FFF7C8FCF1E700000C00001011
:1041600070B51B48012102685170006800F0B4F876
:10417000184D6C7818E000BF05EBC4014868027860
:10418000EAB1012A20D000F005F9E878641C8442E5
:1041900000D100240F48801CD0E84F1F491EC9B22F
:1041A000C0E8421F002AF7D1A8780028E4D16C703B
:1041B0000948FFF789FDBDE8704000F04DB9098955
:1041C00089B2FFF72FFDE0E78968FFF725FEDCE7FE
:1041D0000C0000103C3500108400001005480178E8
:1041E00011B101214170704703494FF080500860C0
:1041F000704700001400001004ED00E0F0B4154D0D
:10420000AB1CEE784FEA0507D3E84F2FB24202D13C
:10421000BFF32F8F11E0521CD4B2C3E8424F002AE3
:10422000F2D100BFD7E84F2F541CB44200D1002474
:10423000E4B2C7E8434F002BF4D1EB78934205D9A1
:1042400005EBC202C2E90101F0BC7047F0BC0220DC
:10425000FEF772BF3C350010104A10B5D368ABB101
:1042600013469B8A03E08CB12246A48A2344D46877
:104270008B42F8D3C460D0600261C46804B120618D
:10428000591A8182908A401A908210BD0024C4601D
:10429000D060C91A02619182848210BD9C00001016
:1042A00030B502780023022A03D0012A01D0032A64
:1042B00000D101238C7800E01046426812B1957855
:1042C000A542F9D24A6041601BB102B19160886099
:1042D00030BD0020FBE7000003494A68426000222D
:1042E00082604860704700008400001010B5836849
:1042F00004462BB9607801280ED1084B03E09B6877
:1043000018780028FBD0204600F026F82146BDE8AA
:1043100010401846FFF7C4BF10BD00008400001015
:10432000806A01627047806AC0E90812704710B560
:10433000016900290ED0C268CA60C36800223BB17F
:104340008B8A848A23448B82C3681961C26000E02F
:104350008A82026110BD0000816839B142684A60FA
:104360004168002901D0806888607047054906E0EF
:104370004A68824202D1406848607047114600296D
:10438000F6D17047840000100222027000224260C1
:104390004180704710B5416881B1FFF795FC044634
:1043A000FFF7C5FF0120607001462046FFF7B8FF08
:1043B0002146BDE810400348FFF772BF4188491C01
:1043C000418010BD8400001010B5416861B1FFF755
:1043D0007BFC04460121FFF7A3FF2046FFF7A7FF60
:1043E0002046FFF7F9FB02E04188491C418000208C
:1043F00010BD000010B50C46418819B1491E41801E
:10440000002010BD34B10A4A4368116823B1FFF798
:1044100047FF07E0012010BD41601368002159608B
:104420001168886007212046FFF75EFBF2E7000075
:104430000C00001006480068D0E90A10814203D33E
:1044400000680449884202D00120FEF775BE70471B
:104450000C000010A52E5AE2074902224860427063
:10446000064A1278002A05D006C98A4202D0C078CE
:10447000FFF760B9704700000C0000102800001022
:1044800070B5FFF72FF900200446204A204902E0CA
:1044900042F82040401C0B889842F9D31D48342232
:1044A00001881D48FFF7F4F81C48008880B240F0EE
:1044B00000421B4801681B48FFF7EAF81A48082227
:1044C00001881A480068FFF7E3F8194DFF20194AE0
:1044D000E870EC8400212846FFF70EFC1648042102
:1044E0000170446015480170C460046184821448FE
:1044F00015490560022068701248047044700978FC
:10450000C170BDE87040FFF729BC000008350010FD
:104510001A62000010620000503200104062000079
:104520000C62000040020010126200003402001011
:10453000500000103D310000840000109C0000106D
:104540000C0000103C350010186200001B4810B52C
:10455000016841F47F01016000684FF07F4101EA8A
:1045600000201649C0431439B0FA80F00968C0F140
:104570000800C1F30221814200D3481C0F49091FE2
:104580000B686FF08072824063F317020A60FFF7D6
:1045900059FA0B49002808600EDB00F1E021FF22E8
:1045A00081F8002400F01F020121914040098000A1
:1045B00000F1E020C0F8001110BD000020ED00E087
:1045C000180000100C4810B50268012151700068F5
:1045D000FFF782FEFFF7A4FA08480168491C016052
:1045E000FFF7C2FA00F012FB0548FFF76DFBBDE8CC
:1045F0001040FFF731BF00000C0000101C0000103D
:1046000084000010002805D0810702D1017800291C
:1046100000D000207047000030B50B4C00236268CA
:1046200005E095688D4204D813461268491B002A9C
:10463000F7D10260816012B19568691A91600BB17F
:10464000186030BD606030BD040000102DE9F041FD
:104650001E46174680460D4611F0FF0F00D14D1C37
:104660001848FFF715FA041E16D0280AE762E084FE
:10467000E9B242462046E661FFF73EFB01251248BB
:10468000124905E000EB850252F8042C32B16D1C92
:104690000A889542F6D90020BDE8F081002DFAD0B5
:1046A00000EB850040F8044C0948E570007818B12B
:1046B00001212046FFF72EF82046FFF78DFA284605
:1046C000EAE7000050320010083500101A620000BE
:1046D000280000102DE9F05F584DDFF85891DFF801
:1046E000588129684FF0010A002618B1CA78AB46F4
:1046F000824243D14E70FBF74CFD29688862FFF778
:1047000099FE2868046A1FE06068C0B12046FFF780
:10471000DBFA07460021FFF703FE3846FFF707FEE6
:1047200087F801A039464648FFF7BAFDE168A4F8CA
:1047300002A0A760386AE0603C620C4604E0E068D2
:104740006680A660E6600446002CDDD12868C27849
:1047500008EB820141F8046CC16A3A48FFF78AFA13
:104760002868C66299F8001011B10021FEF7D2FF47
:1047700035482968FFF77EFA2E6056E033490988EC
:1047800088420CD808EB800858F8045C3DB12846F4
:10479000FFF7E2FD2846FFF7CAFD2C6A22E0FF2062
:1047A000BDE8F09F6068C0B12046FFF78DFA07466C
:1047B0000021FFF7B5FD3846FFF7B9FD87F801A0E6
:1047C00039461F48FFF76CFDE168A4F802A0A76016
:1047D000386AE0603C620C4604E0E0686680A660EF
:1047E000E6600446002CDDD148F8046C1548E96AFF
:1047F000FFF740FAEE6299F8000018B10021284650
:10480000FEF788FF29461048FFF734FA0C48DBF81A
:10481000001040688B7882789A4209D981F801A00B
:104820000748DBF80010FFF73BFD0020FFF7D4F945
:104830000020B5E728000010083500100C0000101B
:104840008400001040020010503200101A62000074
:1048500070B51A4D80B11A4A128890421FD8194A71
:1048600002EB800050F8044CCCB1A17084F8241005
:104870002868A04205D014E028688170286880F874
:104880002410114840688078884215D90E4829685C
:10489000FFF706FD29680120487000200AE0FF208C
:1048A00070BD2046FFF722FD6078012804D106483C
:1048B000FFF70AFAFFF790F9002070BD0C00001016
:1048C0001A620000083500108400001002480068D9
:1048D000002800D0C07870470C00001010B50028E8
:1048E00004D0FFF76BFBFFF799F9402010BD0000E3
:1048F00010B5134C207860B91248400705D1124812
:1049000001681048FFF71CFA08B1852010BDFFF7B9
:10491000B7FD0E49FF2009688870207858B900213A
:104920000B4800F05DF80B49086000210A4800F0D0
:1049300001F90A490860012020700020607010BD54
:1049400004000010183600103C6200000C0000103B
:104950001C62000000350010F462000004350010F5
:1049600070B50F4D687808B1002070BD0D4C2068FF
:1049700090F824100020FFF76BFF2068C178FF2912
:1049800003D1816A203181F30988616811B96060BF
:1049900000202060FFF7DAFD01206870E4E70000E6
:1049A000040000100C00001070B5FFF767F8044613
:1049B000FFF75CF80849094E0D686D1C48B1FFF718
:1049C0005DF8A04200D204463068401C05FB004060
:1049D00070BD3068FAE70000086300001C0000109A
:1049E00010B5040005D0216819B1606808B10278DB
:1049F0000AB1002010BD8900103189B2FFF7FEF91D
:104A0000606810BD3EB504000D464FF0800012D026
:104A1000217801290FD12846FFF7D0FA0246204617
:104A200001A9FFF771FA012801D0102003E00DB1B0
:104A3000402000E00020DDE9011203B030BD10B5D8
:104A4000002804D004680CB1207808B1002010BD03
:104A50002046FFF7D5FA204610BD10B5FFF748F9FC
:104A600010B10178032901D0802010BDFFF7D0FAE2
:104A7000FF2801D0002010BD812010BD70B50D466B
:104A8000FFF736F9040002D02078032801D08020F7
:104A900070BD2846FFF792FA01462046FFF724FB37
:104AA000012803D0FF2804D0002070BD0DB1C12023
:104AB00070BD812070BD10B5002807D0046824B1F6
:104AC000207810B9B1F5803F01DB002010BD89B21C
:104AD0002046FFF759FC204610BD10B5FFF708F936
:104AE00010B10178022901D0802010BD4188A1F5C4
:104AF0007F42FF3A03D0FFF767FC002010BD812002
:104B000010BD70B50D46FFF7F3F804004FF0FF300D
:104B10000DD0217802290AD12846FFF74FFA014625
:104B20002046FFF767FC012802D06088401C70BD5A
:104B3000002070BD70B50E46040029D0206838B33F
:104B4000606810F1030F23DB032821DCE16829B141
:104B50001048FEF7AAFF05001AD000E000256068A3
:104B6000E168001D40EA012133462A462068FFF72C
:104B70006DFD40B1084901EB8000084950F8040C74
:104B8000826A516370BD1DB129460248FFF788F85B
:104B9000002070BD1836001008350010F5390000EF
:104BA00010B5FFF793FE002804D0034901EB800005
:104BB00050F8040C10BD00000835001010B5FFF7C8
:104BC00021FD18B1C18C19B1C46A02E0802010BD6A
:104BD0000024C078FFF77EFDFF2806D01CB12146D7
:104BE0000348FFF75DF8002010BD812010BD0000D4
:104BF0001836001010B5FFF77BF820B141690A683C
:104C00000169104610BD0020014610BD2DE9F0419C
:104C1000134E7468002C1CD0A068124F401E4FF039
:104C20000108A06012E0254624687460002229462D
:104C30003868FEF79CFD10B10420FEF77DFA687914
:104C4000012808D085F80480002C02D0A068002834
:104C5000E9D0BDE8F0812846E968FFF7DDFCF3E71D
:104C6000040000100035001030313233343536374F
:104C700038394142434445464030580030313233A0
:104C800034353637383961626364656640307800A0
:104C90000400000800000000000000020001000005
:104CA000100000002863000099630000706300009A
:104CB0005863000085630000F4630000D9630000BE
:104CC000CF630000EE630000020001005200040008
:104CD000911900008D19000055190000811900007C
:104CE00061190000711900006919000079190000AC
:104CF0003D190000351900004519000000000000B2
:104D000000000000000000000000000000000000A3
:104D10000000000000000000000000000000000093
:104D20000000000000000000000000000000800102
:104D3000800180018001800180018001800180016B
:104D4000800180018001800100000000800180015D
:104D50000000000000000000000000000000000053
:104D6000CC00CC00CC00CC00CC00CC00000000007B
:104D70000000000000000000000000000000000033
:104D80000000000000000000000000000000000023
:104D90000000000000000000600C600C600C300699
:104DA0003006FE1FFE1F300638071803FE1FFE1FC9
:104DB000180318038C018C018C0100000000800096
:104DC000E003F80F9C0E8C1C8C188C009800F801E6
:104DD000E007800E801C8C188C189C18B80CF00F03
:104DE000E0038000800000000000000000000000E0
:104DF00000000E181B0C110C1106110611031103F3
:104E00009B018E01C038C06C604460443044304423
:104E10001844186C0C380000000000000000E0018D
:104E2000F0033807180618063003F001F000F80008
:104E30009C310E33061E061C061C063FFC73F02137
:104E40000000000000000000000000000000000062
:104E50000C000C000C000C000C000C00000000000A
:104E60000000000000000000000000000000000042
:104E70000000000000000000000000000000000230
:104E800000038001C000C0006000600030003000FE
:104E90003000300030003000300030006000600032
:104EA000C000C000800100030002000000002000DC
:104EB0006000C000800180010003000300060006BE
:104EC00000060006000600060006000600030003B8
:104ED00080018001C0006000200000000000000090
:104EE0000000000000000000C000C000D806F80765
:104EF000E00130033807000000000000000000005F
:104F000000000000000000000000000000000000A1
:104F1000000000000000000080018001800180018D
:104F20008001FC3FFC3F8001800180018001800105
:104F30000000000000000000000000000000000071
:104F40000000000000000000000000000000000061
:104F500000000000000000000000000000008001D0
:104F6000800100010001800000000000000000003E
:104F70000000000000000000000000000000000031
:104F800000000000E007E007000000000000000053
:104F90000000000000000000000000000000000011
:104FA0000000000000000000000000000000000001
:104FB0000000000000000000000000000000C00031
:104FC000C000000000000000000000000000000C15
:104FD000000C000600060006000300030003800327
:104FE000800180018001C000C000C000600060003E
:104FF0000000000000000000000000000000E003CE
:10500000F007380E180C0C180C180C180C180C188B
:105010000C180C180C180C18180C380EF007E003BC
:10502000000000000000000000000000000000017F
:105030008001C001F0019801880180018001800198
:105040008001800180018001800180018001800158
:105050000000000000000000000000000000E0036D
:10506000F80F180C0C180C1800180018000C00068B
:1050700000038001C000600030001800FC1FFC1F0E
:105080000000000000000000000000000000E0013F
:10509000F807180E0C0C0C0C000C0006C003C0071F
:1050A000000C001800180C180C18180CF807E00376
:1050B0000000000000000000000000000000000CE4
:1050C000000E000F000F800DC00C600C600C300C47
:1050D000180C0C0CFC3FFC3F000C000C000C000CEE
:1050E0000000000000000000000000000000F80FB9
:1050F000F80F180018000C00EC03FC071C0E001C35
:105100000018001800180C181C0C180EF807E00303
:105110000000000000000000000000000000C007C8
:10512000F00F381C181818000C00CC03EC0F3C0EC4
:105130001C1C0C180C180C18181C380EF007E00377
:105140000000000000000000000000000000FC1F44
:10515000FC1F000C00060006000380038001C00154
:10516000C000E000600060007000300030003000DF
:105170000000000000000000000000000000E0034C
:10518000F007380E180C180C180C3806F007F0074A
:10519000180C0C180C180C180C18380CF80FE0032D
:1051A0000000000000000000000000000000E0031C
:1051B000F007380E1C0C0C180C180C181C1C381E90
:1051C000F81BE0190018000C000C1C0EF807F00189
:1051D00000000000000000000000000000000000CF
:1051E00000000000000000008001800100000000BD
:1051F00000000000000000000000000080018001AD
:10520000000000000000000000000000000000009E
:10521000000000000000000080018001000000008C
:10522000000000000000000000000000800180017C
:1052300000010001800000000000000000000000EC
:105240000000000000000000000000000010001C32
:10525000800FE003F8001800F800E003800F001C46
:10526000001000000000000000000000000000002E
:10527000000000000000000000000000F81F000017
:1052800000000000F81F0000000000000000000007
:10529000000000000000000000000000000000000E
:1052A00000000000000000000000000008003800BE
:1052B000F001C007001F0018001FC007F0013800F0
:1052C0000800000000000000000000000000E003F3
:1052D000F80F180C0C180C180018000C000600032E
:1052E0008001C000C000C00000000000C000C0007D
:1052F00000000000000000000000000000000000AE
:10530000E00718180420C229224A1144094409441C
:10531000094409221113E20C024004201818E00786
:1053200000000000000000000000000000008003FA
:105330008003C006C006C006600C600C3018301830
:105340003018F83FF83F1C700C600C6006C006C0B7
:105350000000000000000000000000000000FC034E
:10536000FC0F0C0C0C180C180C180C0CFC07FC0F88
:105370000C180C300C300C300C300C18FC1FFC07D7
:105380000000000000000000000000000000C00756
:10539000F01F38381C300C7006600600060006004E
:1053A00006000600060006600C701C30F01FE007C7
:1053B0000000000000000000000000000000FE03EC
:1053C000FE0F060E061806180630063006300630A8
:1053D00006300630063006180618060EFE0FFE03CD
:1053E0000000000000000000000000000000FC3F82
:1053F000FC3F0C000C000C000C000C00FC1FFC1F00
:105400000C000C000C000C000C000C00FC3FFC3FDE
:105410000000000000000000000000000000F83F55
:10542000F83F18001800180018001800F81FF81F9F
:1054300018001800180018001800180018001800AC
:105440000000000000000000000000000000E00F6D
:10545000F83F3C780E6006E007C00300030003FE3F
:1054600003FE03C007C006C00EC03CF0F83FE00FCB
:1054700000000000000000000000000000000C30F0
:105480000C300C300C300C300C300C30FC3FFC3F3E
:105490000C300C300C300C300C300C300C300C302C
:1054A000000000000000000000000000000080017B
:1054B00080018001800180018001800180018001E4
:1054C00080018001800180018001800180018001D4
:1054D00000000000000000000000000000000006C6
:1054E000000600060006000600060006000600068C
:1054F000000600060006180618063807F003E0014B
:105500000000000000000000000000000000063065
:105510000618060C060606038601C600660076001D
:10552000DE008E0106030606060C0618063006602D
:105530000000000000000000000000000000180053
:10554000180018001800180018001800180018009B
:10555000180018001800180018001800F81FF81F8D
:1055600000000000000000000000000000000EE04D
:105570001EF01EF01EF036D836D836D836D866CC97
:1055800066CC66CCC6C6C6C6C6C6C6C686C386C3F5
:1055900000000000000000000000000000000C30CF
:1055A0001C303C303C306C306C30CC30CC308C31EA
:1055B0000C330C330C360C360C3C0C3C0C380C30D9
:1055C0000000000000000000000000000000E007F4
:1055D000F81F1C380E70066003C003C003C003C070
:1055E00003C003C003C006600E701C38F81FE0073C
:1055F0000000000000000000000000000000FC0FA0
:10560000FC1F0C380C300C300C300C300C18FC1F0C
:10561000FC070C000C000C000C000C000C000C0033
:105620000000000000000000000000000000E00793
:10563000F81F1C380E70066003E003C003C003C0EF
:1056400003C003C007E006630E3F1C3CF83FE0F7D1
:1056500000C0000000000000000000000000FE0F7D
:10566000FE1F06380630063006300638FE1FFE07DD
:1056700006030606060C06180618063006300660F5
:105680000000000000000000000000000000E00337
:10569000F80F1C0C0C180C180C001C00F803E00F81
:1056A000001E0038063006300E301C1CF80FE007D4
:1056B0000000000000000000000000000000FE7F6D
:1056C000FE7F8001800180018001800180018001D6
:1056D00080018001800180018001800180018001C2
:1056E00000000000000000000000000000000C307E
:1056F0000C300C300C300C300C300C300C300C30CA
:105700000C300C300C300C300C301818F81FE0073F
:105710000000000000000000000000000000036026
:105720000630063006300C180C180C18180C180C23
:10573000380E30063006700760036003C001C001F8
:1057400000000000000000000000000000000360F6
:10575000C361C361C36166336633663366336633E0
:1057600066336C1B6C1B6C1B2C1A3C1E380E380EDF
:1057700000000000000000000000000000000FE03A
:105780000C7018303018700C600EC0078003800356
:10579000C003E006700C301C18180C300E6007E0D7
:1057A000000000000000000000000000000003C036
:1057B00006600C301C383818300C6006E007C00357
:1057C00080018001800180018001800180018001D1
:1057D0000000000000000000000000000000FC7F4E
:1057E000FC7F006000300018000C00060003800100
:1057F000C0006000300018000C000600FE7FFE7F35
:105800000000000000000000000000000000E003B5
:10581000E003600060006000600060006000600005
:105820006000600060006000600060006000600078
:10583000600060006000E003E00300000000300052
:105840003000600060006000C000C000C000C00107
:1058500080018001800100030003000300060006B0
:105860000000000000000000000000000000E00355
:10587000E003000300030003000300030003000330
:105880000003000300030003000300030003000300
:10589000000300030003E003E00300000000000039
:1058A000C001C00160036003600330063006180CBD
:1058B000180C0000000000000000000000000000C4
:1058C00000000000000000000000000000000000D8
:1058D00000000000000000000000000000000000C8
:1058E0000000000000000000000000000000FFFFBA
:1058F000FFFF0000000000000000000000000C009E
:105900000C000C000C000C000C000000000000005B
:105910000000000000000000000000000000000087
:105920000000000000000000000000000000000077
:105930000000000000000000F003F8071C0C0C0C35
:10594000000FF00FF80C0C0C0C0C1C0FF80FF018DB
:10595000000000000000000000000000000018002F
:105960001800180018001800D803F80F380C181881
:1059700018181818181818181818380CF80FD80311
:105980000000000000000000000000000000000017
:105990000000000000000000C003F007300E180CEB
:1059A0001800180018001800180C300EF007C0037B
:1059B00000000000000000000000000000000018CF
:1059C0000018001800180018C01BF01F301C181811
:1059D00018181818181818181818301CF01FC01BA1
:1059E00000000000000000000000000000000000B7
:1059F0000000000000000000C003F00F300C181879
:105A0000F81FF81F180018003818301CF00FC007D6
:105A10000000000000000000000000000000800FF7
:105A2000C00FC000C000C000F007F007C000C000F9
:105A3000C000C000C000C000C000C000C000C00066
:105A40000000000000000000000000000000000056
:105A50000000000000000000E00DF80F180E0C0C14
:105A60000C0C0C0C0C0C0C0C0C0C180EF80FE00DA4
:105A7000000C0C0C1C06F807F001000000001800D8
:105A80001800180018001800D807F80F381C18184C
:105A90001818181818181818181818181818181886
:105AA0000000000000000000000000000000C00036
:105AB000C000000000000000C000C000C000C00026
:105AC000C000C000C000C000C000C000C000C000D6
:105AD0000000000000000000000000000000C00006
